:02000004C0D06A
:10000000B0B590B0044662B600F001FE01AD2846DE
:1000100001F08CF8A885000417D101A800F062FE59
:100020000B9000F01DFE0D2802D3FF2000F040FED3
:1000300001200102002C17D02068FF31884202D035
:10004000616800F0B2FD00F027FE00F03FFE01A95C
:10005000884202D10B9800F045FE01A8808D00284F
:100060000BD1002010B0B0BD0F900E910448784421
:100070000D900DA800F002FEF3E700F0CDFDC046A4
:100080001E14000003B4014811E000002F0000001E
:1000900003B401480BE000003200000003B4014843
:1000A00005E000004400000003B40248FFE70249F5
:1000B000084700007100000001001200F0B593B085
:1000C00003920D460346012218980146049291437B
:1000D0001E224A4019990A430027002A3A460593EE
:1000E00016D106AE33243246234600F065F830467A
:1000F000214601F096F83318221A2D497944184602
:1001000001F02EF83046214601F08BF8059B02469F
:1001100006A802928018274E7E44D95D0F240A0952
:100120002140715C4170B15C0170801C7F1C142FF8
:10013000F3D104980102039F3846FFF7AFFF002870
:1001400034D12020019006AA0092029B283301217D
:1001500038460491FFF79CFF002827D13846FFF767
:1001600091FF0020024604990A4043080599C95CA2
:10017000002A01D0214000E00909092901D8715C59
:100180000BE02F4606ADEB5C920004255540EB409A
:100190001A07715C00D520393D462954401C282897
:1001A000E0D128200021295413B0F0BD00F034FD27
:1001B000381100001F110000F0B587B001930292C2
:1001C0000A46074600210691CCB2601C019988427C
:1001D0003BD20A26002538461146059232462B4668
:1001E00000F01AFE0490039132462B4600F034FED4
:1001F000391A3020084302990855069E711C0922BD
:10020000D21B2A46059B9A41049F039ADBD3C9B2AD
:10021000029A5554310616D01546117811551070B2
:10022000601E0006400E0ED0FE20C043FE340121A9
:100230002A192646135C6C5C14546B54741E491CBA
:10024000F3B29942F4D307B0F0BD014800F0E4FCEA
:1002500002650000F0B581B014460E46054601293E
:100260000AD12878302807D1022B2ED300206070C5
:1002700030202070012061E00698B04222D2B11CEB
:10028000994222D8311A009109D02946009B27466D
:100290000A783A70491C5B1E7F1C002BF8D100289D
:1002A000009A114602D02E21A154511CB2422AD2EA
:1002B0006318AD180022AE5C9E54521C9042FAD1D5
:1002C0008A1821E0C11C994201D9002036E0871B21
:1002D0002E20607030202070002F08D0A01C30220B
:1002E000394600F0EAFEB91C7F1EFDD100E0022174
:1002F000002E08D0621800202B5C1354401C86424C
:10030000FAD10A1800E00A460025A55401209142BE
:1003100014D2665C002D0B4600D02B46302E00D048
:100320000023491C8A421D46F3D1002B06D0002130
:10033000E1545A1EA35C2E2B00D1A15401B0F0BD94
:10034000F0B58BB0202901D9002057E014460E46A5
:10035000074603AD20212846029300F0A1FEA81B0A
:1003600020303946324600F0A0FE029A002003A950
:10037000095C00290AD1401C2028F8D1022AE3D3C5
:100380001F497944204600F00DFF36E0002003A904
:100390000B5A5BBA0B52801C2028F8D11346002060
:1003A00003A9095C002903D1401C2028F8D11CE0D6
:1003B000002BC9D0009301940024204603AF395B81
:1003C000000445180A262846314600F099FC3853A7
:1003D0004643A81BA41C202CF0D130210843009BCD
:1003E0005B1E019CE054029AD9E7E118D51A204619
:1003F0002A4600F05EFE0020605501200BB0F0BDE3
:10040000CC0E0000F0B59DB0039302920C46064658
:1004100004AF64253846294600F042FE30462146A6
:100420003A462B46FFF78CFF002826D0239D229EBC
:1004300004AF6421384600F0F4FE01900C210398CB
:1004400000F0EFFEC4B2AC422A4600D82246304645
:10045000039900F02AFE029800903219E0434319F4
:100460000198C1B23846FFF7F5FE002805D0A8195B
:10047000401E002101701DB0F0BD072000F0CCFB34
:1004800080B5142A00D31422891A203100F011FEFD
:1004900080BD80B5202A00D3202200F00AFE80BD56
:1004A000B0B5044602202077A1689B228A5C082A06
:1004B00003D0062A01D0052A02D10225012000E03E
:1004C00003256077A069142200F0FEFD022800D009
:1004D00065770420A077B0BDF0B581B00446007800
:1004E000052804D120699C2803D2002054E0012073
:1004F00052E0E5689C21284600F0D2FD96350026A2
:10050000274F7F44386800F095FB0178427812024B
:1005100051188278C0780002801800044018616980
:100520000A784B781B029A188B78C9780902C91887
:1005300009048918884206D03F1D761C0C2EE1D193
:10054000601C012600E0681D0670697900200429FE
:1005500009DD07290EDC05291CD0062913D007293F
:100560001AD1052116E0032914D30ED0042913D182
:1005700007210FE008290AD009290AD00A290BD13E
:100580000D21297008E0032104E0042102E00A2182
:1005900000E0082129700420607001B0F0BDC04661
:1005A0005A0F000010B59A228A5C0C469634002A35
:1005B00006D0026963881B1D9A4221D10022227154
:1005C0002278032A06DD072A0DDC042A0FD0072A29
:1005D0000DD005E0002A0AD0012A08D0022A06D050
:1005E0000021017510BD082A0BD00D2AF8D1027B1D
:1005F0002831202308461946FFF74BFF0C202070B6
:1006000010BD027B142308461946FFF739FFF5E7B2
:1006100010B59A228A5C0C469634002A06D00269EC
:1006200063881B1D9A421AD1002222712278072A60
:1006300009D0052A11D1027B142308461946FFF779
:100640001FFF072007E0027B2831202308461946B8
:10065000FFF71FFF0C20207010BD0021017510BD99
:1006600010B59A228A5C0C469634002A06D002699C
:1006700063881B1D9A421BD10022227122780B2A0B
:100680000AD00A2A12D1027B483120230846194693
:10069000FFF7FFFE0B2007E0027B683120230846AE
:1006A0001946FFF7F6FE0C20207010BD00210175E1
:1006B00010BD10B59A228A5C0C469634002A06D0EA
:1006C000026963881B1D9A421AD100222271227886
:1006D000062A09D0032A11D1027B142308461946A1
:1006E000FFF7CEFE062007E0027B283120230846D4
:1006F0001946FFF7CEFE0C20207010BD00210175B9
:1007000010BD10B59A228A5C0C469634002A06D099
:10071000026963881B1D9A4225D10022227122782A
:10072000092A0BD0062A12D0052A1AD1027B1423DB
:1007300008461946FFF7A4FE062010E0027B14319C
:10074000142308461946FFF79BFE0C2007E0027BA6
:100750002831202308461946FFF79BFE0920207008
:1007600010BD0021017510BD80B50421017581689F
:100770009B228A5C042A08DC012A0FDD022A11D0A0
:10078000032A0FD0042A0DD01FE0062A0DDD072A08
:1007900012D0082A13D0092A04D016E0002A01D06A
:1007A000012A12D1FFF7FEFE80BD052A0AD0062AD3
:1007B0000BD1FFF77EFF80BDFFF7A3FF80BDFFF7E2
:1007C0004FFF80BDFFF724FF80BD0021017580BD74
:1007D000F0B581B00091054600270D4C7C44E0192E
:1007E00000F028FA06460C2100F01BFD02463046B8
:1007F000294600F004FD002804D00D37752FEED1F6
:10080000122003E0307B00990870307B01B0F0BD0E
:10081000740A000070B504468568C0682E46943698
:10082000002811D01430C0B23146FFF7D1FF30702C
:10083000E1682846883014310C2200F0B3FC012016
:100840007070E06800280AD11220308001202075E5
:100850008835044979440C22284600F0A3FC042082
:10086000607570BD710A0000B0B504468568C06847
:1008700022692549794400F095FC9B20295C0020E1
:1008800004290ADD072913DC052921D0062922D0F5
:10089000072936D11F4979442EE0012911DD0229AB
:1008A0001CD003291DD004292BD11949794423E0F8
:1008B000082919D009291AD00A2922D116497944C0
:1008C0001AE0002916D001291BD11449794413E0FC
:1008D0001549794410E0154979440DE010497944EF
:1008E0000AE01049794407E01149794404E01149CC
:1008F000794401E0054979446069A26900F052FC3D
:1009000004202077B0BDC0467F0A0000060A000020
:10091000750A0000B80A0000BB0A0000350A000092
:100920002A0A0000360A00005C0A00006D0A000076
:10093000750A00007B0A000080B582B0C26A3023CD
:100940001370C26A782353709B228A5C092A10D8DC
:10095000012393401722520113420AD00268126801
:10096000C06A002300930193831C08461946FFF7D1
:10097000A5FB02B080BD000070B582B00C460546F4
:100980009B20085C0E46943604280CDD072817DCF3
:10099000052829D006282CD0072864D1686AAA6ABD
:1009A0003449794446E0012815DD022826D0032881
:1009B00029D0042857D1686AAA6A2D49794444E0AD
:1009C000082825D0092831D00A284CD1686AAA6A9B
:1009D0002949794439E0002833D0012843D1686A95
:1009E000AA6A2249794430E0686AAA6A26497944A9
:1009F00020E0686AAA6A254979441BE0686AAA6A05
:100A00001F49794421E0686AAA6A1E4979441CE0BA
:100A1000686AAA6A1E49794400F0C4FB3278E86A21
:100A2000296B009001912046483017E0686AAA6A55
:100A30001849794400F0B6FB28462146FFF77CFFB1
:100A400011E0686AAA6A0D49794400F0ABFB32787C
:100A5000E86A296B009001912046283088342021D3
:100A60002346FFF7CFFC02B070BDC046A5090000C9
:100A7000F7090000340A0000A70900003B09000044
:100A80008F09000098090000D3090000D309000075
:100A9000D4090000C5090000B0B582B00C46054677
:100AA0009B20085C062804DC052814D006280DD0FD
:100AB00025E007280AD0082821D1686AAA6A1249C5
:100AC000794400F06FFB204668300CE0686AAA6A3F
:100AD0000C49794403E0686AAA6A0C49794400F039
:100AE00061FB20462830214694310A78E96A2B6B55
:100AF00000910193883420212346FFF783FC02B044
:100B0000B0BDC046410900005B0900002609000095
:100B1000B0B582B005469B20085C072817D10C466B
:100B2000686AAA6A0B49794400F03CFBE86A302104
:100B30000170E86A7821417028680268E86A00213B
:100B4000009101911434811C2046FFF7B7FA02B0DE
:100B5000B0BDC046FE080000B0B50546C469406A95
:100B6000A96A00F09DFAE86A296B00F099FA284614
:100B70002030042101752021695C022908D0012957
:100B80000BD000290ED128462146FFF7F5FEB0BD57
:100B900028462146FFF7BCFFB0BD28462146FFF797
:100BA0007BFFB0BD00210175B0BD80B5FF221346AB
:100BB000043398420CDC0232904218D08122520059
:100BC000904218D0984221D10846FFF769FC80BDB9
:100BD00041239B00984212D00632904213D08322C8
:100BE0005200904212D10846FFF7B6FF80BD08467A
:100BF000FFF772FC80BD0846FFF7B6FD80BD0846D2
:100C0000FFF708FE80BD0846FFF72EFE80BD80B5C9
:100C1000002000F067F880BD044600F057F8214638
:100C200000F090FA7A460249C91C891A401A7047A6
:100C3000250CD0C080B50449884204D303498842BA
:100C400001D2FFF7EFFF80BD0000D0C0C014D0C0BC
:100C500001DF002900D170470846FFF7DDFF0000E3
:100C600080B584B0002002900190034801A9FFF7ED
:100C7000EFFF04B080BDC0463801006080B584B08D
:100C8000002102910190034801A9FFF7E1FF04B0A0
:100C900080BDC0460D67006080B582B00020019025
:100CA00002486946FFF7D4FF02B080BD8D6800603E
:100CB00080B584B0002102910190034801A9FFF79B
:100CC000C7FF04B080BDC046BE9A006080B582B048
:100CD0000020019002486946FFF7BAFF02B080BDCC
:100CE000B187006080B584B0002102910190034873
:100CF00001A9FFF7ADFF04B080BDC046060B01603F
:100D0000002243088B4274D303098B425FD3030A4A
:100D10008B4244D3030B8B4228D3030C8B420DD35D
:100D2000FF22090212BA030C8B4202D312120902EB
:100D300065D0030B8B4219D300E0090AC30B8B4229
:100D400001D3CB03C01A5241830B8B4201D38B03D7
:100D5000C01A5241430B8B4201D34B03C01A52417C
:100D6000030B8B4201D30B03C01A5241C30A8B42BF
:100D700001D3CB02C01A5241830A8B4201D38B02AA
:100D8000C01A5241430A8B4201D34B02C01A52414E
:100D9000030A8B4201D30B02C01A5241CDD2C309C0
:100DA0008B4201D3CB01C01A524183098B4201D33C
:100DB0008B01C01A524143098B4201D34B01C01A27
:100DC000524103098B4201D30B01C01A5241C3089F
:100DD0008B4201D3CB00C01A524183088B4201D30E
:100DE0008B00C01A524143088B4201D34B00C01AFA
:100DF0005241411A00D20146524110467047FFE766
:100E000001B5002000F006F802BDC0460029F7D069
:100E100076E770477047C046002B11D1002A0FD1EA
:100E2000002900D1002802D00021C943080007B4DE
:100E3000024802A14018029003BDC046D9FFFFFF3F
:100E400003B4684601B5029800F034F8019B9E4651
:100E500002B00CBC7047C046F0B5CE46474680B5E0
:100E6000070099463B0C9C4613041B0C1D000E000A
:100E700061460004140C000C45434B43604361433E
:100E8000C0182C0C20188C46834203D980235B02A7
:100E90009846C444494679437243030C63442D0485
:100EA0002D0CC918000440198918C0BCB946B046B9
:100EB000F0BDC046F0B557464E464546DE46E0B565
:100EC00004000D009246994683B08B4230D82DD055
:100ED0004946504600F0BAF829000600200000F00C
:100EE000B5F8331A9846203B9B4633D45A465346AE
:100EF000934042461F00534693401E00AF423AD8EB
:100F0000AF4200D178E05B46A41BBD41002B00DA64
:100F100075E0002200230092019301235A4693407A
:100F20000193012342469340009328E08242CFD9A7
:100F300000220023009201930C9B002B01D01C6027
:100F40005D600098019903B0F0BCBB46B246A9466B
:100F5000A046F0BD424620239B1A5246DA40414645
:100F600013004A468A40170042461F4353469340A7
:100F70001E00AF42C4D900220023009201934346D1
:100F8000002BD9D0FB0772081A4346467B080EE0B7
:100F9000AB4201D1A2420CD8A41A9D4101202419D0
:100FA0006D410021013E24184D41002E06D0AB4278
:100FB000EED9013E24196D41002EF8D10098019917
:100FC0005B4600196941002B24DB2B005A4644463E
:100FD000D3402A00E2401C005B461500002B2ADBB0
:100FE00026009E40330026004746BE403200801A4D
:100FF0009941009001919FE7A342BCD883E7424604
:10100000202300219B1A0022009101920122DA4044
:10101000019286E7424620239B1A2A0046469A40C0
:101020002300F340444613432A00E2401C005B4681
:101030001500002BD4DA42462F00202326009740CB
:101040009B1ADE403B003343CDE7C04610B5002974
:1010500003D100F007F8203002E0080000F002F8A9
:1010600010BDC0461C2101231B04984201D3000C73
:1010700010391B0A984201D3000A08391B0998420B
:1010800001D30009043902A2105C40187047C04621
:101090000403020201010101000000000000000041
:1010A00010B5002200F009F810BD10B500F01AF8D4
:1010B00010BD10B500F01FF810BD0B0010B51100E9
:1010C0001A0000F02BF810BD30B500240139A242FF
:1010D00001D1002005E0035D01340D5DAB42F6D087
:1010E000581B30BD002310B59A4200D110BDCC5C16
:1010F000C4540133F8E710B5884202D98B189842DE
:1011000003D3002307E08B5C8354013AFBD210BD6C
:10111000CC5CC45401339A42FAD1F8E70300821838
:10112000934200D1704719700133F9E7F0C041468E
:101130004A4653465C466D4676467EC02838F0C81F
:101140000020704710307CC890469946A246AB46B6
:10115000B54608C82838F0C8080000D10120184753
:1011600070B5040008002300A518AB420AD11C1B6F
:10117000151BA2420BD00200117800290BD1197067
:10118000101A06E019780029F1D00133EDE700F0DC
:101190002FF8001970BD012D02D01970013D0133E7
:1011A0000132E9E7F0B50500002A14D0501E012AEB
:1011B0001CD02C000A0016002700367801320134BA
:1011C000130025003E70002E0DD001380028F2D10A
:1011D00000222A7000E00B001A000132501E007835
:1011E00013000028F9D1581A0138F0BD0B00EFE7C1
:1011F0000023C25C0133002AFBD1581E704730B572
:101200000500101E08D00024013A2B5D085D8342C2
:1012100001D1944201D1181A30BD0134002BF4D110
:10122000F9E7030041188B4202D01A78002A01D155
:10123000181A70470133F6E7307800303132333412
:101240003536373839616263646566004552524FFE
:1012500052003000634441490000000000000000DB
:10126000124345544800000000000000001243559E
:101270005344430000000000000006435A52580047
:1012800000000000000000124355534454000000C9
:10129000000000000643425443000000000000002C
:1012A00000084342415400000000000000001243C7
:1012B00052455000000000000000001263534149F5
:1012C000000000000000000012556E6B6E6F776E1C
:1012D00020746F6B656E2E20506C656173652063A2
:1012E0006F6E74616374204C6564676572207375FA
:1012F00070706F72742E00436F6D706F756E640046
:101300004D696E740052656465656D005265646573
:10131000656D20756E6465726C79696E6700426FE9
:1013200072726F7700526570617920626F72726FAE
:101330007700526570617920626F72726F77206FEB
:101340006E20626568616C66005472616E736665DA
:1013500072004C697175696461746520626F7272A4
:101360006F77004D616E75616C20766F7465005605
:101370006F74652064656C6567617465004D696EA6
:10138000742063455448004D696E742E00526564A4
:1013900065656D2E0052656465656D20756E6465CA
:1013A000726C79696E672E00426F72726F7720617E
:1013B0006D6F756E742E00526570617920626F7268
:1013C000726F772E00426F72726F7765722E0052C5
:1013D0006563697069656E742E004C697175696426
:1013E00061746520626F72726F7765722E00507241
:1013F0006F706F73616C2069642E0044656C656763
:10140000617465652E005265706179696E6720614F
:101410006D6F756E742E00416D6F756E742E005376
:101420007570706F72742E00436F6C6C61746572AE
:10143000616C2E00A0712D68DB006A75852A12E3AD
:10144000C5EBEAEC0E7527022608F818A9059CBB27
:10145000F5E3C46215373E3D5C19A95C1249C58BA2
:101460003414D0C03814D0C03C14D0C04014D0C004
:101470004414D0C04814D0C04C14D0C05014D0C0B4
:101480005414D0C05814D0C05C14D0C00000000068
:10149000457468657265756D00000000000000000D
:1014A000000000000000000000000000000000003C
:1014B000000000000000000000000000000000002C
:04000005C0D0000166
:00000001FF
