:02000004C0D06A
:10000000B0B590B0044662B600F088FD01AD284658
:1000100001F042F9A885000413D101A800F0F2FD17
:100020000B900A2000F09EFD01200102002C17D049
:100030002068FF31884202D0616800F03DFD00F089
:10004000CBFD00F0D3FD01A9884202D10B9800F04E
:10005000D9FD01A8808D00280BD1002010B0B0BDC3
:100060000E91054979440D910F900DA800F0A8FD5F
:10007000F3E700F058FDC04664160000F0B595B0F7
:1000800004920D46064601221A98014607929143B2
:100090001E224A401B990A430023002A15D108AFAB
:1000A00033243A46234600F063F83846214601F0EF
:1000B000D7F93B18221A2C497944184601F006F961
:1000C0003846214601F0CCF9034608A80393C0182E
:1000D0000021264F7F44725C0F2413092240BA5C32
:1000E0004270FA5C0270801C491C1429F3D10697F7
:1000F00007980102049F384600F054FD202069460D
:10010000486008AA0A60039B28333846079900F024
:1001100035FD00200595024607990A4043083746F9
:10012000F15C0E092140002A00D00E46092E02D8AB
:100130000699895D0EE008A9CB5C910004224A4033
:10014000082595400699895D0A46203A1D4200D04F
:100150001146059D3E462954401C2828DBD1282005
:100160000021295415B0F0BDC8130000AF130000E2
:10017000F0B587B0019302920A4607460021069126
:10018000CCB2601C019988423BD20A260025384631
:100190001146059232462B4600F02CFE0490039146
:1001A00032462B4600F046FE391A302008430299A9
:1001B0000855069E711C0922D21B2A46059B9A41AE
:1001C000049F039ADBD3C9B2029A5554310616D064
:1001D0001546117811551070701EC0B202280ED34A
:1001E000FE20C043FE3401212A192646135C6C5CB4
:1001F00014546B54741E491CF3B29942F4D307B0E3
:10020000F0BD014800F08FFC02650000F0B581B040
:1002100014460D46064601290BD13078302808D106
:100220000020022B6CD30020607030202070012051
:1002300066E0069FAF4226D2E91BAA1C00209A4224
:100240005ED80091002909D03046009A23460178F3
:100250001970401C521E5B1C002AF8D1002F009917
:100260000A4602D02E2060544A1CA9422AD2731991
:1002700050197D422646595DB154761C6D1CFAD149
:100280000099411A1FE0791BFA1C00209A4237D8C6
:100290002E206070302020700222002905D0A01C82
:1002A000302200F0EBFEB81C421B002D0AD0204685
:1002B000294633788354401C491E761C0029F8D106
:1002C000511900E011460020605401208A4217D2E3
:1002D0000025A65C002D134600D02B460025302EAD
:1002E00000D02B46521C91421D46F2D1002B07D064
:1002F0000021E154591E625C2E2A01D10022625471
:1003000001B0F0BDF0B58BB007460020202958D8C9
:1003100014460E4603AD20212846029300F0A0FEAD
:10032000A81B20303946324600F0A0FE029A002079
:1003300003A9095C401C00290AD11F28F8D9002014
:10034000022A3ED320497944204600F0EDFF37E0F1
:10035000002003A90B5A5BBA0B52801C2028F8D14D
:10036000134618E0009301940024204603AF395B44
:10037000000445180A262846314600F04FFC385341
:100380004643A81BA41C202CF0D1009B5B1E3030E0
:10039000019CE054029A002003A9095C401C00293A
:1003A00002D11F28F8D903E00020002BDAD108E0A1
:1003B000E118D51A20462A4600F05CFE0020605560
:1003C00001200BB0F0BDC04654110000F0B59DB047
:1003D000039302920C46064604AF6425384629462C
:1003E00000F03EFE304621463A462B46FFF78AFF94
:1003F000002825D0239D229E04AF6421384601F0B9
:100400002FF801900C21039801F02AF8C4B2AC42F5
:100410002A4600D822463046039900F027FE684657
:10042000029901603219E04343190198C1B238467C
:10043000FFF7ECFE70190021CA4381541DB0F0BDD6
:10044000014800F070FBC0460465000010B504468A
:100450000748A083A168A069142200F017FE0421B8
:10046000A17702210322002800D01146617710BD38
:1004700002020000F0B581B0044600780121022894
:1004800062D1206900219C285ED3E5689C21284622
:1004900000F0E6FD00262E4F7F44386800F04AFB4E
:1004A00001784278120251188278C07800028018D0
:1004B0000004401861690A784B781B029A188B78FF
:1004C000C9780902C91809048918884209D03F1D52
:1004D000761C0B2EE1D3F0B20B2805D1601C01264F
:1004E00001E028469B3006709B20285C00210428F0
:1004F00009DC012811DD02281AD003281AD00428AB
:1005000022D107201DE006280CDD072814D008287A
:1005100014D0092818D1082013E0002810D0012891
:100520000FD011E005280CD006280DD1032008E0DB
:10053000084606E0042004E0052002E00A2000E06E
:100540000220962168540421617001B0F0BDC046BC
:100550000412000010B50421017581689B228A5C99
:10056000042A08DC012A0FDD022A11D0032A0FD049
:10057000042A0DD089E0062A0DDD072A26D0082A94
:1005800045D0092A04D080E0002A01D0012A7CD17C
:1005900000F099F810BD052A58D0062A75D19A2284
:1005A0008B5C0A469A32002B07D09823CB5A1B1D2E
:1005B00004699C427DD10023137096228A5C0C460C
:1005C0009634062A64D0032A18D05EE09A228B5C07
:1005D0000A469A32002B07D09823CB5A1B1D046978
:1005E0009C4266D10023137096228A5C0C46963496
:1005F000092A54D0062A5DD0052A46D1C3680C3397
:1006000014220846194600F031FD062050E09A22D7
:100610008B5C0A469A32002B07D09823CB5A1B1DBD
:1006200004699C4245D10023137096228A5C0C46D3
:1006300096340B2A2FD00A2A27D1C36848312022AA
:100640000846194600F012FD0B2031E09A228B5C1F
:100650000A469A32002B07D09823CB5A1B1D0469F7
:100660009C4226D10023137096228A5C0C46963455
:10067000072A0DD0052A08D1C3680C331422084676
:10068000194600F0F3FC072012E00021017510BDAF
:10069000C368283101E0C3686831202203E0C368E1
:1006A00014310C3314220846194600F0DFFC0C20EC
:1006B000207010BDC368283120220846194600F07A
:1006C000D5FC0920F4E710B59A228B5C0A469A32D1
:1006D000002B07D09823CB5A1B1D04699C4221D1C3
:1006E0000023137096228A5C0C469634032A06DC9B
:1006F000002A0ED0012A0CD0022A0AD013E0042AC4
:1007000007D0072A05D0082A0DD1C3680C3314225C
:1007100002E0C368283120220846194600F0A6FCF2
:100720000C20207010BD0021017510BDF0B581B006
:100730000091054600240E4E7E44304600F0FAF942
:1007400007460C2100F08CFE02463846294600F090
:1007500041FE641C002804D00D360020082CECD982
:1007600003E0387B00990870012001B0F0BDC0465D
:10077000640D0000B0B504468568C068002809D043
:100780002846883029469431FFF7D0FF9520012173
:1007900029540BE09420122129520120207588351C
:1007A000044979440C22284600F0BEFD04206075FF
:1007B000B0BDC0466F0D0000B0B504468568C06886
:1007C00022692B49794400F0AFFD9B20295C002071
:1007D00004290CDC012917DD022927D003292AD09E
:1007E000042943D16069A269234979443BE0062981
:1007F00013DD072924D0082927D0092936D16069BB
:10080000A2691F4979442EE0002923D001292DD166
:100810006069A2691749794425E005291FD0062996
:1008200024D16069A269154979441CE06069A26914
:100830001549794417E06069A2691449794412E0C6
:100840006069A269134979440DE06069A26912499F
:10085000794408E06069A2690A49794403E0606963
:10086000A2690B49794400F05FFD04202077B0BDF8
:100870007B0D0000440D0000830D0000690D000099
:10088000B30D0000EE0C00002F0D00002A0D00003B
:10089000160D0000540D00005B0D000010B582B075
:1008A0008269302313708269782353709B228A5C9B
:1008B000062A04DC052A06D0062A04D00FE0072AFF
:1008C00001D0092A0BD102681268806900236C46A6
:1008D00023606360831C08461946FFF7CFFB02B014
:1008E00010BD0000B0B582B0054684680069696932
:1008F00000F0B6FBA869E96900F0B2FB20200421F2
:10090000295428462030297B02291ED0012913D0E2
:10091000002938D19B20205C04284ADC01285ADDBC
:1009200002286FD0032872D0042800D0A6E02869DE
:100930006A695449794487E09B20205C062825DCBD
:10094000052851D0062841D098E09B20205C07283C
:1009500000D093E028696A695649794400F0E4FCC4
:10096000A86930210170A86978214170286802685F
:10097000A86900216B46196059601434811C204617
:10098000FFF77CFB7AE00021017077E007281DD09B
:10099000082873D128696A694449794400F0C4FC85
:1009A0009420225CA869297F6B4603C320466830E7
:1009B00054E006281DDD07282ED0082831D009284C
:1009C0005CD128696A693149794451E028696A69CA
:1009D0003549794438E0002832D001284ED12869C1
:1009E0006A69274979442FE028696A69304979445E
:1009F0002AE0052838D0062840D128696A692249AA
:100A0000794435E028696A69214979441CE02869FC
:100A10006A692149794417E028696A69204979445B
:100A200026E028696A691F49794400F07DFC94201A
:100A3000225CA869297F6B4603C3204648300DE03D
:100A400028696A691349794400F06EFC9420225C9D
:100A5000A869297F6B4603C32046283088342021AB
:100A60002346FFF7B3FC09E028696A690B4979441A
:100A700000F05AFC28462146FFF710FF02B0B0BD37
:100A8000E70B0000C10C00000D0C0000710C000011
:100A9000BB0B00008D0B0000D20B0000950B00007B
:100AA000FA0B0000040C0000830C0000C30C0000D3
:100AB000560C00000C0D000080B5FF2213460433D5
:100AC00098420CDC0232904218D0812252009042AF
:100AD00018D0984221D10846FFF7B8FC80BD4123C9
:100AE0009B00984212D00632904213D083225200CB
:100AF000904212D10846FFF7F5FE80BD0846FFF789
:100B0000B9FC80BD0846FFF725FD80BD0846FFF70C
:100B100031FE80BD0846FFF74FFE80BD80B5002046
:100B200000F070F880BD044600F060F8214600F047
:100B3000BFFB000080B50449884204D303498842C2
:100B400001D200F005F880BD0000D0C00017D0C071
:100B50007A460249C91C891A401A7047510BD0C005
:100B600001DF704780B584B00190034801A9FFF709
:100B7000F7FF04B080BDC0463701006080B588B083
:100B800000900191029203930A9804900B980590AB
:100B900003486946FFF7E4FF019808B080BDC046EE
:100BA0003B07006080B584B000900191034869461E
:100BB000FFF7D6FF019804B080BDC046CF1000609B
:100BC00080B584B00190034801A9FFF7C9FF04B0C4
:100BD00080BDC0460D67006080B582B0024869469E
:100BE000FFF7BEFF02B080BD8D68006080B582B0A7
:100BF00003486946FFF7B4FF019802B080BDC046C4
:100C0000B187006080B584B00190034801A9FFF767
:100C1000A7FF029804B080BD7588006003460B43AF
:100C20007FD4002243088B4274D303098B425FD3E5
:100C3000030A8B4244D3030B8B4228D3030C8B4211
:100C40000DD3FF22090212BA030C8B4202D31212F7
:100C5000090265D0030B8B4219D300E0090AC30BCC
:100C60008B4201D3CB03C01A5241830B8B4201D379
:100C70008B03C01A5241430B8B4201D34B03C01A62
:100C80005241030B8B4201D30B03C01A5241C30ADA
:100C90008B4201D3CB02C01A5241830A8B4201D34B
:100CA0008B02C01A5241430A8B4201D34B02C01A35
:100CB0005241030A8B4201D30B02C01A5241CDD2DA
:100CC000C3098B4201D3CB01C01A524183098B4225
:100CD00001D38B01C01A524143098B4201D34B010E
:100CE000C01A524103098B4201D30B01C01A524171
:100CF000C3088B4201D3CB00C01A524183088B42F8
:100D000001D38B00C01A524143088B4201D34B00E0
:100D1000C01A5241411A00D2014652411046704752
:100D20005DE0CA0F00D04942031000D34042534057
:100D300000229C4603098B422DD3030A8B4212D317
:100D4000FC22890112BA030A8B420CD38901921149
:100D50008B4208D3890192118B4204D389013AD086
:100D6000921100E08909C3098B4201D3CB01C01A5B
:100D7000524183098B4201D38B01C01A524143096E
:100D80008B4201D34B01C01A524103098B4201D35C
:100D90000B01C01A5241C3088B4201D3CB00C01AC9
:100DA000524183088B4201D38B00C01A5241D9D2E1
:100DB00043088B4201D34B00C01A5241411A00D262
:100DC0000146634652415B10104601D34042002B5E
:100DD00000D54942704763465B1000D3404201B5DD
:100DE000002000F005F802BD0029F8D016E7704792
:100DF0007047C046002B11D1002A0FD1002900D125
:100E0000002802D00021C943081C07B4024802A1EF
:100E10004018029003BDC046D9FFFFFF03B46846E7
:100E200001B5029800F030F8019B9E4602B00CBC60
:100E30007047C046F0B5CE46474615042D0C2E002F
:100E400080B50704140C3F0C9946030C7E435D43A8
:100E5000674363437F19340CE4199C46A54203D9C8
:100E600080235B029846C4444B4643435143250CC0
:100E700036046544360C2404A4195B195918200063
:100E80000CBC90469946F0BDF0B54F464646D64656
:100E9000C0B5040082B00D00914698468B422FD811
:100EA0002CD04146484600F0B1F829000600200049
:100EB00000F0ACF8331A9C46203B9A4600D576E009
:100EC0004B46524693401F004B46624693401E00DD
:100ED000AF4228D825D05346A41BBD41002B00DAD1
:100EE0007BE00022002300920193012352469340AD
:100EF0000193012362469340009318E08242D0D9C7
:100F000000220023009201930A9B002B01D01C6059
:100F10005D600098019902B01CBC90469946A246BB
:100F2000F0BDA342D7D9002200230092019363466B
:100F3000002BE9D0FB079846414672080A437B081C
:100F400066460EE0AB4201D1A2420CD8A41A9D41E4
:100F5000012024196D410021013E24184D41002E2D
:100F600006D0AB42EED9013E24196D41002EF8D1D6
:100F700000980199534600196941002B23DB2B008F
:100F80005246D3402A006446E2401C0053461500F6
:100F9000002B2DDB26005746BE4033002600674657
:100FA000BE403200801A994100900191ACE7624640
:100FB00020239B1A4A46DA406146130042468A4083
:100FC00017001F4380E7624620239B1A2A006646CB
:100FD0009A402300F3401343D4E7624620230021C4
:100FE0009B1A0022009101920122DA40019280E7CF
:100FF0002023624626009B1ADE402F00B04666463C
:10100000B74046463B003343C8E7C04610B5002909
:1010100003D100F007F8203002E0081C00F002F8CD
:1010200010BDC0461C2101231B04984201D3000CB3
:1010300010391B0A984201D3000A08391B0998424B
:1010400001D30009043902A2105C40187047C04661
:101050000403020201010101000000000000000081
:1010600010B5002200F00AF810BDC04610B500F01F
:1010700033F810BD10B500F073F810BD130010B5B3
:101080000A00190000F0BAF810BDC04630B5032AB6
:101090001CD903000B439B070FD004780B789C42AC
:1010A00017D1012305E0C45C5D1CCB5C9C4210D1D0
:1010B0002B009342F7D1002030BD03680C68A34297
:1010C000EBD1043A04300431032AF6D8002AE4D1E3
:1010D000F1E7E01AF0E7C046F0B50F2A38D90D0065
:1010E00005430C000300AD0736D110271500BC46A0
:1010F000103D2D092E013618B444276866681F601C
:101100005E60A768E6689F60DE6010331034634558
:10111000F3D10F2401352D01491914404519032C31
:101120001CD90023CE58EE500433E61A032EF9D80A
:101130000323043CA4080134A4002D1909191A4002
:1011400005D00023CC5CEC5401339342FAD1F0BDBE
:101150000500002AF5D1FAE70500F2E72200F8E7DA
:10116000F0B588420AD98B18984207D2531E002A3C
:1011700003D0CA5CC254013BFBD2F0BD0F2A09D890
:101180000500002AF9D00023CC5CEC5401339342D3
:10119000FAD1F2E70D0005430C000300AD0729D199
:1011A0001500103D2D092F013F18103726681E60CD
:1011B00066685E60A6689E60E6681034DE60103384
:1011C000BB42F3D10F2401352D01491914404519B3
:1011D000032C11D90023CE58EE500433E61A032E07
:1011E000F9D80323043CA4080134A4002D190919DB
:1011F0001A40C6E70500C6E72200C2E7F0B583073C
:1012000046D0541E002A42D0CEB20200032502E08E
:101210001A00013C3BD3531C16702B42F8D1032C0F
:101220002DD9FF220A40150215432A0415430F2C1D
:1012300016D92700103F3F093E01B4461E001A0090
:1012400010366644156055609560D5601032B24224
:10125000F8D10F2201373F01DB191440032C0ED9BE
:10126000261FB608B700BC461A001F1D674420C2DF
:10127000BA42FCD103220136B6009B191440002C5F
:1012800005D0C9B21C19197001339C42FBD1F0BDC5
:1012900014000300C3E7C046F0C041464A46534627
:1012A0005C466D4676467EC02838F0C80020704700
:1012B00010307CC890469946A246AB46B54608C851
:1012C0002838F0C8081C00D10120184770B5050067
:1012D000002A20D00378002B23D0841802E0037862
:1012E000002B02D00130A042F9D1441B121B13D0B5
:1012F0000B780D00002B0AD0012A02D00370013AAE
:10130000013001310B78002BF6D1491B6418002302
:101310000370200070BD0024080000F029F8241894
:10132000F7E70024E4E7C04630B5002A19D0013AB7
:101330000B00002A0ED1002202701A785C1C2300D8
:10134000002A0FD1601A013830BD013A280023006D
:10135000002AF0D05C1C1B78451C0370002BF4D1D4
:10136000F0E70B001A785C1C2300002AFAD1E9E7A9
:1013700010B5040083070AD00378002B23D0032282
:1013800002E00378002B1CD001301042F9D1026832
:101390000E4B0F49D31893430B420FD10430026810
:1013A0000A4BD31893430B4208D104300268074B11
:1013B000D31893430B42F1D000E001300378002BA7
:1013C000FBD1001B10BD0020FCE7C046FFFEFEFE67
:1013D0008080808030B50024002A39D003000B4380
:1013E0009B0720D1032A1ED903680D68AB421AD18E
:1013F000043A002A2CD0184D5D199D432B00174D3F
:101400002B420CD024E003680C68A3420BD1043AB1
:10141000002A1FD0104C1C199C432C421AD10430B6
:101420000431032AEFD804780D78013AA5420ED191
:10143000002A0FD0002D0DD0012304E09A4209D0DC
:101440000133002C06D0C45CCD5CAC42F6D0641BEA
:10145000200030BD0024FBE7FFFEFEFE8080808080
:10146000020000290CD00378002B09D0411802E0BB
:101470000378002B02D001308842F9D1801A7047DE
:101480000020FCE7307800303132333435363738DD
:1014900039616263646566004552524F5200300004
:1014A000634441490000000000000000124345541D
:1014B0004800000000000000001243555344430060
:1014C00000000000000006435A52580000000000CF
:1014D0000000001243555344540000000000000077
:1014E000064342544300000000000000000843424D
:1014F000415400000000000000001243524550001B
:101500000000000000000012635341490000000089
:101510000000000012556E6B6E6F776E20746F6B5B
:10152000656E2E20506C6561736520636F6E74610B
:101530006374204C656467657220737570706F7298
:10154000742E00436F6D706F756E64005265646534
:10155000656D20756E6465726C79696E67005265A1
:101560006465656D004D696E7400426F72726F77CD
:1015700000526570617920626F72726F77005265F8
:1015800070617920626F72726F77206F6E20626572
:1015900068616C66005472616E73666572004C69B6
:1015A0007175696461746520626F72726F77004D46
:1015B000616E75616C20766F746500566F7465207E
:1015C00064656C6567617465004D696E742E0052C8
:1015D000656465656D2E0052656465656D20756E88
:1015E0006465726C79696E672E00426F72726F77F4
:1015F00020616D6F756E742E005265706179206286
:101600006F72726F772E00426F72726F7765722EF3
:1016100000526563697069656E742E004C6971755E
:10162000696461746520626F72726F7765722E00F3
:1016300050726F706F73616C2069642E0044656C2A
:101640006567617465652E005265706179696E67C2
:1016500020616D6F756E742E00416D6F756E742E06
:1016600000537570706F72742E00436F6C6C6174F0
:101670006572616C2E00852A12E3DB006A75A07129
:101680002D68C5EBEAEC0E7527022608F818A905A7
:101690009CBBF5E3C462567813885C19A95C000012
:1016A0007616D0C07A16D0C07E16D0C08216D0C0B2
:1016B0008616D0C08A16D0C08E16D0C09216D0C062
:1016C0009616D0C09A16D0C0000000004574686518
:1016D0007265756D00000000000000000000000051
:1016E00000000000000000000000000000000000FA
:1016F00000000000000000000000000000000000EA
:04000005C0D0000166
:00000001FF
